{
  "contractName": "certs",
  "abi": [
    {
      "inputs": [],
      "stateMutability": "nonpayable",
      "type": "constructor"
    },
    {
      "anonymous": false,
      "inputs": [
        {
          "indexed": true,
          "internalType": "address",
          "name": "owner",
          "type": "address"
        },
        {
          "indexed": true,
          "internalType": "address",
          "name": "approved",
          "type": "address"
        },
        {
          "indexed": true,
          "internalType": "uint256",
          "name": "tokenId",
          "type": "uint256"
        }
      ],
      "name": "Approval",
      "type": "event"
    },
    {
      "anonymous": false,
      "inputs": [
        {
          "indexed": true,
          "internalType": "address",
          "name": "owner",
          "type": "address"
        },
        {
          "indexed": true,
          "internalType": "address",
          "name": "operator",
          "type": "address"
        },
        {
          "indexed": false,
          "internalType": "bool",
          "name": "approved",
          "type": "bool"
        }
      ],
      "name": "ApprovalForAll",
      "type": "event"
    },
    {
      "anonymous": false,
      "inputs": [
        {
          "indexed": true,
          "internalType": "address",
          "name": "previousOwner",
          "type": "address"
        },
        {
          "indexed": true,
          "internalType": "address",
          "name": "newOwner",
          "type": "address"
        }
      ],
      "name": "OwnershipTransferred",
      "type": "event"
    },
    {
      "anonymous": false,
      "inputs": [
        {
          "indexed": true,
          "internalType": "address",
          "name": "from",
          "type": "address"
        },
        {
          "indexed": true,
          "internalType": "address",
          "name": "to",
          "type": "address"
        },
        {
          "indexed": true,
          "internalType": "uint256",
          "name": "tokenId",
          "type": "uint256"
        }
      ],
      "name": "Transfer",
      "type": "event"
    },
    {
      "inputs": [
        {
          "internalType": "address",
          "name": "to",
          "type": "address"
        },
        {
          "internalType": "uint256",
          "name": "tokenId",
          "type": "uint256"
        }
      ],
      "name": "approve",
      "outputs": [],
      "stateMutability": "nonpayable",
      "type": "function"
    },
    {
      "inputs": [
        {
          "internalType": "address",
          "name": "owner",
          "type": "address"
        }
      ],
      "name": "balanceOf",
      "outputs": [
        {
          "internalType": "uint256",
          "name": "",
          "type": "uint256"
        }
      ],
      "stateMutability": "view",
      "type": "function",
      "constant": true
    },
    {
      "inputs": [],
      "name": "cert",
      "outputs": [
        {
          "internalType": "address",
          "name": "",
          "type": "address"
        }
      ],
      "stateMutability": "view",
      "type": "function",
      "constant": true
    },
    {
      "inputs": [
        {
          "internalType": "uint256",
          "name": "",
          "type": "uint256"
        }
      ],
      "name": "certificados",
      "outputs": [
        {
          "internalType": "string",
          "name": "universidad",
          "type": "string"
        },
        {
          "internalType": "string",
          "name": "alumno",
          "type": "string"
        },
        {
          "internalType": "address",
          "name": "dirAlumno",
          "type": "address"
        },
        {
          "internalType": "uint8",
          "name": "notaMedia",
          "type": "uint8"
        }
      ],
      "stateMutability": "view",
      "type": "function",
      "constant": true
    },
    {
      "inputs": [],
      "name": "contador",
      "outputs": [
        {
          "internalType": "uint256",
          "name": "",
          "type": "uint256"
        }
      ],
      "stateMutability": "view",
      "type": "function",
      "constant": true
    },
    {
      "inputs": [
        {
          "internalType": "uint256",
          "name": "tokenId",
          "type": "uint256"
        }
      ],
      "name": "getApproved",
      "outputs": [
        {
          "internalType": "address",
          "name": "",
          "type": "address"
        }
      ],
      "stateMutability": "view",
      "type": "function",
      "constant": true
    },
    {
      "inputs": [
        {
          "internalType": "address",
          "name": "owner",
          "type": "address"
        },
        {
          "internalType": "address",
          "name": "operator",
          "type": "address"
        }
      ],
      "name": "isApprovedForAll",
      "outputs": [
        {
          "internalType": "bool",
          "name": "",
          "type": "bool"
        }
      ],
      "stateMutability": "view",
      "type": "function",
      "constant": true
    },
    {
      "inputs": [],
      "name": "name",
      "outputs": [
        {
          "internalType": "string",
          "name": "",
          "type": "string"
        }
      ],
      "stateMutability": "view",
      "type": "function",
      "constant": true
    },
    {
      "inputs": [],
      "name": "owner",
      "outputs": [
        {
          "internalType": "address",
          "name": "",
          "type": "address"
        }
      ],
      "stateMutability": "view",
      "type": "function",
      "constant": true
    },
    {
      "inputs": [
        {
          "internalType": "uint256",
          "name": "tokenId",
          "type": "uint256"
        }
      ],
      "name": "ownerOf",
      "outputs": [
        {
          "internalType": "address",
          "name": "",
          "type": "address"
        }
      ],
      "stateMutability": "view",
      "type": "function",
      "constant": true
    },
    {
      "inputs": [],
      "name": "renounceOwnership",
      "outputs": [],
      "stateMutability": "nonpayable",
      "type": "function"
    },
    {
      "inputs": [
        {
          "internalType": "address",
          "name": "from",
          "type": "address"
        },
        {
          "internalType": "address",
          "name": "to",
          "type": "address"
        },
        {
          "internalType": "uint256",
          "name": "tokenId",
          "type": "uint256"
        }
      ],
      "name": "safeTransferFrom",
      "outputs": [],
      "stateMutability": "nonpayable",
      "type": "function"
    },
    {
      "inputs": [
        {
          "internalType": "address",
          "name": "from",
          "type": "address"
        },
        {
          "internalType": "address",
          "name": "to",
          "type": "address"
        },
        {
          "internalType": "uint256",
          "name": "tokenId",
          "type": "uint256"
        },
        {
          "internalType": "bytes",
          "name": "_data",
          "type": "bytes"
        }
      ],
      "name": "safeTransferFrom",
      "outputs": [],
      "stateMutability": "nonpayable",
      "type": "function"
    },
    {
      "inputs": [
        {
          "internalType": "address",
          "name": "operator",
          "type": "address"
        },
        {
          "internalType": "bool",
          "name": "approved",
          "type": "bool"
        }
      ],
      "name": "setApprovalForAll",
      "outputs": [],
      "stateMutability": "nonpayable",
      "type": "function"
    },
    {
      "inputs": [
        {
          "internalType": "bytes4",
          "name": "interfaceId",
          "type": "bytes4"
        }
      ],
      "name": "supportsInterface",
      "outputs": [
        {
          "internalType": "bool",
          "name": "",
          "type": "bool"
        }
      ],
      "stateMutability": "view",
      "type": "function",
      "constant": true
    },
    {
      "inputs": [],
      "name": "symbol",
      "outputs": [
        {
          "internalType": "string",
          "name": "",
          "type": "string"
        }
      ],
      "stateMutability": "view",
      "type": "function",
      "constant": true
    },
    {
      "inputs": [
        {
          "internalType": "uint256",
          "name": "tokenId",
          "type": "uint256"
        }
      ],
      "name": "tokenURI",
      "outputs": [
        {
          "internalType": "string",
          "name": "",
          "type": "string"
        }
      ],
      "stateMutability": "view",
      "type": "function",
      "constant": true
    },
    {
      "inputs": [
        {
          "internalType": "address",
          "name": "from",
          "type": "address"
        },
        {
          "internalType": "address",
          "name": "to",
          "type": "address"
        },
        {
          "internalType": "uint256",
          "name": "tokenId",
          "type": "uint256"
        }
      ],
      "name": "transferFrom",
      "outputs": [],
      "stateMutability": "nonpayable",
      "type": "function"
    },
    {
      "inputs": [
        {
          "internalType": "address",
          "name": "newOwner",
          "type": "address"
        }
      ],
      "name": "transferOwnership",
      "outputs": [],
      "stateMutability": "nonpayable",
      "type": "function"
    },
    {
      "inputs": [
        {
          "internalType": "address",
          "name": "",
          "type": "address"
        }
      ],
      "name": "universidades",
      "outputs": [
        {
          "internalType": "string",
          "name": "",
          "type": "string"
        }
      ],
      "stateMutability": "view",
      "type": "function",
      "constant": true
    },
    {
      "inputs": [
        {
          "internalType": "string",
          "name": "_nombre",
          "type": "string"
        },
        {
          "internalType": "address",
          "name": "_addrUni",
          "type": "address"
        }
      ],
      "name": "registrarUniversidad",
      "outputs": [],
      "stateMutability": "nonpayable",
      "type": "function"
    },
    {
      "inputs": [
        {
          "internalType": "string",
          "name": "_alumno",
          "type": "string"
        },
        {
          "internalType": "address",
          "name": "_dirAlumno",
          "type": "address"
        },
        {
          "internalType": "uint8",
          "name": "_nota",
          "type": "uint8"
        },
        {
          "internalType": "string",
          "name": "_tokenUri",
          "type": "string"
        }
      ],
      "name": "_createCertNFT",
      "outputs": [],
      "stateMutability": "nonpayable",
      "type": "function"
    }
  ],
  "bytecode": "0x60806040523480156200001157600080fd5b506040518060400160405280600b81526020017f436572746966696361646f0000000000000000000000000000000000000000008152506040518060400160405280600381526020017f6372740000000000000000000000000000000000000000000000000000000000815250816000908051906020019062000096929190620001e7565b508060019080519060200190620000af929190620001e7565b505050620000d2620000c66200011960201b60201c565b6200012160201b60201c565b33600860006101000a81548173ffffffffffffffffffffffffffffffffffffffff021916908373ffffffffffffffffffffffffffffffffffffffff160217905550620002fc565b600033905090565b6000600760009054906101000a900473ffffffffffffffffffffffffffffffffffffffff16905081600760006101000a81548173ffffffffffffffffffffffffffffffffffffffff021916908373ffffffffffffffffffffffffffffffffffffffff1602179055508173ffffffffffffffffffffffffffffffffffffffff168173ffffffffffffffffffffffffffffffffffffffff167f8be0079c531659141344cd1fd0a4f28419497f9722a3daafe3b4186f6b6457e060405160405180910390a35050565b828054620001f59062000297565b90600052602060002090601f01602090048101928262000219576000855562000265565b82601f106200023457805160ff191683800117855562000265565b8280016001018555821562000265579182015b828111156200026457825182559160200191906001019062000247565b5b50905062000274919062000278565b5090565b5b808211156200029357600081600090555060010162000279565b5090565b60006002820490506001821680620002b057607f821691505b60208210811415620002c757620002c6620002cd565b5b50919050565b7f4e487b7100000000000000000000000000000000000000000000000000000000600052602260045260246000fd5b613842806200030c6000396000f3fe608060405234801561001057600080fd5b50600436106101425760003560e01c80638da5cb5b116100b8578063b88d4fde1161007c578063b88d4fde14610366578063c87b56dd14610382578063ce05d4a6146103b2578063e985e9c5146103e2578063f2fde38b14610412578063f82fd00f1461042e57610142565b80638da5cb5b146102bd5780638e59bb48146102db57806395d89b411461030e578063a22cb4651461032c578063b28a91d01461034857610142565b806342842e0e1161010a57806342842e0e146101fd57806353d27cc214610219578063545b2e36146102375780636352211e1461025357806370a0823114610283578063715018a6146102b357610142565b806301ffc9a71461014757806306fdde0314610177578063081812fc14610195578063095ea7b3146101c557806323b872dd146101e1575b600080fd5b610161600480360381019061015c9190612618565b61044a565b60405161016e9190612b7d565b60405180910390f35b61017f61052c565b60405161018c9190612b98565b60405180910390f35b6101af60048036038101906101aa9190612751565b6105be565b6040516101bc9190612b16565b60405180910390f35b6101df60048036038101906101da91906125dc565b610643565b005b6101fb60048036038101906101f691906124d6565b61075b565b005b610217600480360381019061021291906124d6565b6107bb565b005b6102216107db565b60405161022e9190612e6d565b60405180910390f35b610251600480360381019061024c919061266a565b6107e1565b005b61026d60048036038101906102689190612751565b6108b5565b60405161027a9190612b16565b60405180910390f35b61029d60048036038101906102989190612471565b610967565b6040516102aa9190612e6d565b60405180910390f35b6102bb610a1f565b005b6102c5610aa7565b6040516102d29190612b16565b60405180910390f35b6102f560048036038101906102f09190612751565b610ad1565b6040516103059493929190612bba565b60405180910390f35b610316610c4e565b6040516103239190612b98565b60405180910390f35b610346600480360381019061034191906125a0565b610ce0565b005b610350610cf6565b60405161035d9190612b16565b60405180910390f35b610380600480360381019061037b9190612525565b610d1c565b005b61039c60048036038101906103979190612751565b610d7e565b6040516103a99190612b98565b60405180910390f35b6103cc60048036038101906103c79190612471565b610ed0565b6040516103d99190612b98565b60405180910390f35b6103fc60048036038101906103f7919061249a565b610f70565b6040516104099190612b7d565b60405180910390f35b61042c60048036038101906104279190612471565b611004565b005b610448600480360381019061044391906126be565b6110fc565b005b60007f80ac58cd000000000000000000000000000000000000000000000000000000007bffffffffffffffffffffffffffffffffffffffffffffffffffffffff1916827bffffffffffffffffffffffffffffffffffffffffffffffffffffffff1916148061051557507f5b5e139f000000000000000000000000000000000000000000000000000000007bffffffffffffffffffffffffffffffffffffffffffffffffffffffff1916827bffffffffffffffffffffffffffffffffffffffffffffffffffffffff1916145b8061052557506105248261141f565b5b9050919050565b60606000805461053b906130d0565b80601f0160208091040260200160405190810160405280929190818152602001828054610567906130d0565b80156105b45780601f10610589576101008083540402835291602001916105b4565b820191906000526020600020905b81548152906001019060200180831161059757829003601f168201915b5050505050905090565b60006105c982611489565b610608576040517f08c379a00000000000000000000000000000000000000000000000000000000081526004016105ff90612dcd565b60405180910390fd5b6004600083815260200190815260200160002060009054906101000a900473ffffffffffffffffffffffffffffffffffffffff169050919050565b600061064e826108b5565b90508073ffffffffffffffffffffffffffffffffffffffff168373ffffffffffffffffffffffffffffffffffffffff1614156106bf576040517f08c379a00000000000000000000000000000000000000000000000000000000081526004016106b690612e2d565b60405180910390fd5b8073ffffffffffffffffffffffffffffffffffffffff166106de6114f5565b73ffffffffffffffffffffffffffffffffffffffff16148061070d575061070c816107076114f5565b610f70565b5b61074c576040517f08c379a000000000000000000000000000000000000000000000000000000000815260040161074390612d0d565b60405180910390fd5b61075683836114fd565b505050565b61076c6107666114f5565b826115b6565b6107ab576040517f08c379a00000000000000000000000000000000000000000000000000000000081526004016107a290612e4d565b60405180910390fd5b6107b6838383611694565b505050565b6107d683838360405180602001604052806000815250610d1c565b505050565b60095481565b6107e96114f5565b73ffffffffffffffffffffffffffffffffffffffff16610807610aa7565b73ffffffffffffffffffffffffffffffffffffffff161461085d576040517f08c379a000000000000000000000000000000000000000000000000000000000815260040161085490612ded565b60405180910390fd5b81600b60008373ffffffffffffffffffffffffffffffffffffffff1673ffffffffffffffffffffffffffffffffffffffff16815260200190815260200160002090805190602001906108b0929190612280565b505050565b6000806002600084815260200190815260200160002060009054906101000a900473ffffffffffffffffffffffffffffffffffffffff169050600073ffffffffffffffffffffffffffffffffffffffff168173ffffffffffffffffffffffffffffffffffffffff16141561095e576040517f08c379a000000000000000000000000000000000000000000000000000000000815260040161095590612d4d565b60405180910390fd5b80915050919050565b60008073ffffffffffffffffffffffffffffffffffffffff168273ffffffffffffffffffffffffffffffffffffffff1614156109d8576040517f08c379a00000000000000000000000000000000000000000000000000000000081526004016109cf90612d2d565b60405180910390fd5b600360008373ffffffffffffffffffffffffffffffffffffffff1673ffffffffffffffffffffffffffffffffffffffff168152602001908152602001600020549050919050565b610a276114f5565b73ffffffffffffffffffffffffffffffffffffffff16610a45610aa7565b73ffffffffffffffffffffffffffffffffffffffff1614610a9b576040517f08c379a0000000000000000000000000000000000000000000000000000000008152600401610a9290612ded565b60405180910390fd5b610aa560006118fb565b565b6000600760009054906101000a900473ffffffffffffffffffffffffffffffffffffffff16905090565b600a8181548110610ae157600080fd5b9060005260206000209060030201600091509050806000018054610b04906130d0565b80601f0160208091040260200160405190810160405280929190818152602001828054610b30906130d0565b8015610b7d5780601f10610b5257610100808354040283529160200191610b7d565b820191906000526020600020905b815481529060010190602001808311610b6057829003601f168201915b505050505090806001018054610b92906130d0565b80601f0160208091040260200160405190810160405280929190818152602001828054610bbe906130d0565b8015610c0b5780601f10610be057610100808354040283529160200191610c0b565b820191906000526020600020905b815481529060010190602001808311610bee57829003601f168201915b5050505050908060020160009054906101000a900473ffffffffffffffffffffffffffffffffffffffff16908060020160149054906101000a900460ff16905084565b606060018054610c5d906130d0565b80601f0160208091040260200160405190810160405280929190818152602001828054610c89906130d0565b8015610cd65780601f10610cab57610100808354040283529160200191610cd6565b820191906000526020600020905b815481529060010190602001808311610cb957829003601f168201915b5050505050905090565b610cf2610ceb6114f5565b83836119c1565b5050565b600860009054906101000a900473ffffffffffffffffffffffffffffffffffffffff1681565b610d2d610d276114f5565b836115b6565b610d6c576040517f08c379a0000000000000000000000000000000000000000000000000000000008152600401610d6390612e4d565b60405180910390fd5b610d7884848484611b2e565b50505050565b6060610d8982611489565b610dc8576040517f08c379a0000000000000000000000000000000000000000000000000000000008152600401610dbf90612dad565b60405180910390fd5b6000600660008481526020019081526020016000208054610de8906130d0565b80601f0160208091040260200160405190810160405280929190818152602001828054610e14906130d0565b8015610e615780601f10610e3657610100808354040283529160200191610e61565b820191906000526020600020905b815481529060010190602001808311610e4457829003601f168201915b505050505090506000610e72611b8a565b9050600081511415610e88578192505050610ecb565b600082511115610ebd578082604051602001610ea5929190612af2565b60405160208183030381529060405292505050610ecb565b610ec684611ba1565b925050505b919050565b600b6020528060005260406000206000915090508054610eef906130d0565b80601f0160208091040260200160405190810160405280929190818152602001828054610f1b906130d0565b8015610f685780601f10610f3d57610100808354040283529160200191610f68565b820191906000526020600020905b815481529060010190602001808311610f4b57829003601f168201915b505050505081565b6000600560008473ffffffffffffffffffffffffffffffffffffffff1673ffffffffffffffffffffffffffffffffffffffff16815260200190815260200160002060008373ffffffffffffffffffffffffffffffffffffffff1673ffffffffffffffffffffffffffffffffffffffff16815260200190815260200160002060009054906101000a900460ff16905092915050565b61100c6114f5565b73ffffffffffffffffffffffffffffffffffffffff1661102a610aa7565b73ffffffffffffffffffffffffffffffffffffffff1614611080576040517f08c379a000000000000000000000000000000000000000000000000000000000815260040161107790612ded565b60405180910390fd5b600073ffffffffffffffffffffffffffffffffffffffff168173ffffffffffffffffffffffffffffffffffffffff1614156110f0576040517f08c379a00000000000000000000000000000000000000000000000000000000081526004016110e790612c2d565b60405180910390fd5b6110f9816118fb565b50565b6000600b60003373ffffffffffffffffffffffffffffffffffffffff1673ffffffffffffffffffffffffffffffffffffffff1681526020019081526020016000208054611148906130d0565b80601f0160208091040260200160405190810160405280929190818152602001828054611174906130d0565b80156111c15780601f10611196576101008083540402835291602001916111c1565b820191906000526020600020905b8154815290600101906020018083116111a457829003601f168201915b50505050509050600081511161120c576040517f08c379a000000000000000000000000000000000000000000000000000000000815260040161120390612ccd565b60405180910390fd5b6000600b60003373ffffffffffffffffffffffffffffffffffffffff1673ffffffffffffffffffffffffffffffffffffffff1681526020019081526020016000208054611258906130d0565b80601f0160208091040260200160405190810160405280929190818152602001828054611284906130d0565b80156112d15780601f106112a6576101008083540402835291602001916112d1565b820191906000526020600020905b8154815290600101906020018083116112b457829003601f168201915b50505050509050600060405180608001604052808381526020018881526020018773ffffffffffffffffffffffffffffffffffffffff1681526020018660ff168152509050600a819080600181540180825580915050600190039060005260206000209060030201600090919091909150600082015181600001908051906020019061135e929190612280565b50602082015181600101908051906020019061137b929190612280565b5060408201518160020160006101000a81548173ffffffffffffffffffffffffffffffffffffffff021916908373ffffffffffffffffffffffffffffffffffffffff16021790555060608201518160020160146101000a81548160ff021916908360ff16021790555050506113f286600954611c48565b6113fe60095485611c66565b6009600081548092919061141190613133565b919050555050505050505050565b60007f01ffc9a7000000000000000000000000000000000000000000000000000000007bffffffffffffffffffffffffffffffffffffffffffffffffffffffff1916827bffffffffffffffffffffffffffffffffffffffffffffffffffffffff1916149050919050565b60008073ffffffffffffffffffffffffffffffffffffffff166002600084815260200190815260200160002060009054906101000a900473ffffffffffffffffffffffffffffffffffffffff1673ffffffffffffffffffffffffffffffffffffffff1614159050919050565b600033905090565b816004600083815260200190815260200160002060006101000a81548173ffffffffffffffffffffffffffffffffffffffff021916908373ffffffffffffffffffffffffffffffffffffffff160217905550808273ffffffffffffffffffffffffffffffffffffffff16611570836108b5565b73ffffffffffffffffffffffffffffffffffffffff167f8c5be1e5ebec7d5bd14f71427d1e84f3dd0314c0f7b2291e5b200ac8c7c3b92560405160405180910390a45050565b60006115c182611489565b611600576040517f08c379a00000000000000000000000000000000000000000000000000000000081526004016115f790612ced565b60405180910390fd5b600061160b836108b5565b90508073ffffffffffffffffffffffffffffffffffffffff168473ffffffffffffffffffffffffffffffffffffffff16148061167a57508373ffffffffffffffffffffffffffffffffffffffff16611662846105be565b73ffffffffffffffffffffffffffffffffffffffff16145b8061168b575061168a8185610f70565b5b91505092915050565b8273ffffffffffffffffffffffffffffffffffffffff166116b4826108b5565b73ffffffffffffffffffffffffffffffffffffffff161461170a576040517f08c379a000000000000000000000000000000000000000000000000000000000815260040161170190612c4d565b60405180910390fd5b600073ffffffffffffffffffffffffffffffffffffffff168273ffffffffffffffffffffffffffffffffffffffff16141561177a576040517f08c379a000000000000000000000000000000000000000000000000000000000815260040161177190612c8d565b60405180910390fd5b611785838383611cda565b6117906000826114fd565b6001600360008573ffffffffffffffffffffffffffffffffffffffff1673ffffffffffffffffffffffffffffffffffffffff16815260200190815260200160002060008282546117e09190612fd9565b925050819055506001600360008473ffffffffffffffffffffffffffffffffffffffff1673ffffffffffffffffffffffffffffffffffffffff16815260200190815260200160002060008282546118379190612f52565b92505081905550816002600083815260200190815260200160002060006101000a81548173ffffffffffffffffffffffffffffffffffffffff021916908373ffffffffffffffffffffffffffffffffffffffff160217905550808273ffffffffffffffffffffffffffffffffffffffff168473ffffffffffffffffffffffffffffffffffffffff167fddf252ad1be2c89b69c2b068fc378daa952ba7f163c4a11628f55a4df523b3ef60405160405180910390a46118f6838383611cdf565b505050565b6000600760009054906101000a900473ffffffffffffffffffffffffffffffffffffffff16905081600760006101000a81548173ffffffffffffffffffffffffffffffffffffffff021916908373ffffffffffffffffffffffffffffffffffffffff1602179055508173ffffffffffffffffffffffffffffffffffffffff168173ffffffffffffffffffffffffffffffffffffffff167f8be0079c531659141344cd1fd0a4f28419497f9722a3daafe3b4186f6b6457e060405160405180910390a35050565b8173ffffffffffffffffffffffffffffffffffffffff168373ffffffffffffffffffffffffffffffffffffffff161415611a30576040517f08c379a0000000000000000000000000000000000000000000000000000000008152600401611a2790612cad565b60405180910390fd5b80600560008573ffffffffffffffffffffffffffffffffffffffff1673ffffffffffffffffffffffffffffffffffffffff16815260200190815260200160002060008473ffffffffffffffffffffffffffffffffffffffff1673ffffffffffffffffffffffffffffffffffffffff16815260200190815260200160002060006101000a81548160ff0219169083151502179055508173ffffffffffffffffffffffffffffffffffffffff168373ffffffffffffffffffffffffffffffffffffffff167f17307eab39ab6107e8899845ad3d59bd9653f200f220920489ca2b5937696c3183604051611b219190612b7d565b60405180910390a3505050565b611b39848484611694565b611b4584848484611ce4565b611b84576040517f08c379a0000000000000000000000000000000000000000000000000000000008152600401611b7b90612c0d565b60405180910390fd5b50505050565b606060405180602001604052806000815250905090565b6060611bac82611489565b611beb576040517f08c379a0000000000000000000000000000000000000000000000000000000008152600401611be290612e0d565b60405180910390fd5b6000611bf5611b8a565b90506000815111611c155760405180602001604052806000815250611c40565b80611c1f84611e7b565b604051602001611c30929190612af2565b6040516020818303038152906040525b915050919050565b611c62828260405180602001604052806000815250612028565b5050565b611c6f82611489565b611cae576040517f08c379a0000000000000000000000000000000000000000000000000000000008152600401611ca590612d6d565b60405180910390fd5b80600660008481526020019081526020016000209080519060200190611cd5929190612280565b505050565b505050565b505050565b6000611d058473ffffffffffffffffffffffffffffffffffffffff16612083565b15611e6e578373ffffffffffffffffffffffffffffffffffffffff1663150b7a02611d2e6114f5565b8786866040518563ffffffff1660e01b8152600401611d509493929190612b31565b602060405180830381600087803b158015611d6a57600080fd5b505af1925050508015611d9b57506040513d601f19601f82011682018060405250810190611d989190612641565b60015b611e1e573d8060008114611dcb576040519150601f19603f3d011682016040523d82523d6000602084013e611dd0565b606091505b50600081511415611e16576040517f08c379a0000000000000000000000000000000000000000000000000000000008152600401611e0d90612c0d565b60405180910390fd5b805181602001fd5b63150b7a0260e01b7bffffffffffffffffffffffffffffffffffffffffffffffffffffffff1916817bffffffffffffffffffffffffffffffffffffffffffffffffffffffff191614915050611e73565b600190505b949350505050565b60606000821415611ec3576040518060400160405280600181526020017f30000000000000000000000000000000000000000000000000000000000000008152509050612023565b600082905060005b60008214611ef5578080611ede90613133565b915050600a82611eee9190612fa8565b9150611ecb565b60008167ffffffffffffffff811115611f37577f4e487b7100000000000000000000000000000000000000000000000000000000600052604160045260246000fd5b6040519080825280601f01601f191660200182016040528015611f695781602001600182028036833780820191505090505b5090505b6000851461201c57600182611f829190612fd9565b9150600a85611f91919061317c565b6030611f9d9190612f52565b60f81b818381518110611fd9577f4e487b7100000000000000000000000000000000000000000000000000000000600052603260045260246000fd5b60200101907effffffffffffffffffffffffffffffffffffffffffffffffffffffffffffff1916908160001a905350600a856120159190612fa8565b9450611f6d565b8093505050505b919050565b61203283836120a6565b61203f6000848484611ce4565b61207e576040517f08c379a000000000000000000000000000000000000000000000000000000000815260040161207590612c0d565b60405180910390fd5b505050565b6000808273ffffffffffffffffffffffffffffffffffffffff163b119050919050565b600073ffffffffffffffffffffffffffffffffffffffff168273ffffffffffffffffffffffffffffffffffffffff161415612116576040517f08c379a000000000000000000000000000000000000000000000000000000000815260040161210d90612d8d565b60405180910390fd5b61211f81611489565b1561215f576040517f08c379a000000000000000000000000000000000000000000000000000000000815260040161215690612c6d565b60405180910390fd5b61216b60008383611cda565b6001600360008473ffffffffffffffffffffffffffffffffffffffff1673ffffffffffffffffffffffffffffffffffffffff16815260200190815260200160002060008282546121bb9190612f52565b92505081905550816002600083815260200190815260200160002060006101000a81548173ffffffffffffffffffffffffffffffffffffffff021916908373ffffffffffffffffffffffffffffffffffffffff160217905550808273ffffffffffffffffffffffffffffffffffffffff16600073ffffffffffffffffffffffffffffffffffffffff167fddf252ad1be2c89b69c2b068fc378daa952ba7f163c4a11628f55a4df523b3ef60405160405180910390a461227c60008383611cdf565b5050565b82805461228c906130d0565b90600052602060002090601f0160209004810192826122ae57600085556122f5565b82601f106122c757805160ff19168380011785556122f5565b828001600101855582156122f5579182015b828111156122f45782518255916020019190600101906122d9565b5b5090506123029190612306565b5090565b5b8082111561231f576000816000905550600101612307565b5090565b600061233661233184612ead565b612e88565b90508281526020810184848401111561234e57600080fd5b61235984828561308e565b509392505050565b600061237461236f84612ede565b612e88565b90508281526020810184848401111561238c57600080fd5b61239784828561308e565b509392505050565b6000813590506123ae81613799565b92915050565b6000813590506123c3816137b0565b92915050565b6000813590506123d8816137c7565b92915050565b6000815190506123ed816137c7565b92915050565b600082601f83011261240457600080fd5b8135612414848260208601612323565b91505092915050565b600082601f83011261242e57600080fd5b813561243e848260208601612361565b91505092915050565b600081359050612456816137de565b92915050565b60008135905061246b816137f5565b92915050565b60006020828403121561248357600080fd5b60006124918482850161239f565b91505092915050565b600080604083850312156124ad57600080fd5b60006124bb8582860161239f565b92505060206124cc8582860161239f565b9150509250929050565b6000806000606084860312156124eb57600080fd5b60006124f98682870161239f565b935050602061250a8682870161239f565b925050604061251b86828701612447565b9150509250925092565b6000806000806080858703121561253b57600080fd5b60006125498782880161239f565b945050602061255a8782880161239f565b935050604061256b87828801612447565b925050606085013567ffffffffffffffff81111561258857600080fd5b612594878288016123f3565b91505092959194509250565b600080604083850312156125b357600080fd5b60006125c18582860161239f565b92505060206125d2858286016123b4565b9150509250929050565b600080604083850312156125ef57600080fd5b60006125fd8582860161239f565b925050602061260e85828601612447565b9150509250929050565b60006020828403121561262a57600080fd5b6000612638848285016123c9565b91505092915050565b60006020828403121561265357600080fd5b6000612661848285016123de565b91505092915050565b6000806040838503121561267d57600080fd5b600083013567ffffffffffffffff81111561269757600080fd5b6126a38582860161241d565b92505060206126b48582860161239f565b9150509250929050565b600080600080608085870312156126d457600080fd5b600085013567ffffffffffffffff8111156126ee57600080fd5b6126fa8782880161241d565b945050602061270b8782880161239f565b935050604061271c8782880161245c565b925050606085013567ffffffffffffffff81111561273957600080fd5b6127458782880161241d565b91505092959194509250565b60006020828403121561276357600080fd5b600061277184828501612447565b91505092915050565b6127838161300d565b82525050565b6127928161301f565b82525050565b60006127a382612f0f565b6127ad8185612f25565b93506127bd81856020860161309d565b6127c681613269565b840191505092915050565b60006127dc82612f1a565b6127e68185612f36565b93506127f681856020860161309d565b6127ff81613269565b840191505092915050565b600061281582612f1a565b61281f8185612f47565b935061282f81856020860161309d565b80840191505092915050565b6000612848603283612f36565b91506128538261327a565b604082019050919050565b600061286b602683612f36565b9150612876826132c9565b604082019050919050565b600061288e602583612f36565b915061289982613318565b604082019050919050565b60006128b1601c83612f36565b91506128bc82613367565b602082019050919050565b60006128d4602483612f36565b91506128df82613390565b604082019050919050565b60006128f7601983612f36565b9150612902826133df565b602082019050919050565b600061291a601783612f36565b915061292582613408565b602082019050919050565b600061293d602c83612f36565b915061294882613431565b604082019050919050565b6000612960603883612f36565b915061296b82613480565b604082019050919050565b6000612983602a83612f36565b915061298e826134cf565b604082019050919050565b60006129a6602983612f36565b91506129b18261351e565b604082019050919050565b60006129c9602e83612f36565b91506129d48261356d565b604082019050919050565b60006129ec602083612f36565b91506129f7826135bc565b602082019050919050565b6000612a0f603183612f36565b9150612a1a826135e5565b604082019050919050565b6000612a32602c83612f36565b9150612a3d82613634565b604082019050919050565b6000612a55602083612f36565b9150612a6082613683565b602082019050919050565b6000612a78602f83612f36565b9150612a83826136ac565b604082019050919050565b6000612a9b602183612f36565b9150612aa6826136fb565b604082019050919050565b6000612abe603183612f36565b9150612ac98261374a565b604082019050919050565b612add81613077565b82525050565b612aec81613081565b82525050565b6000612afe828561280a565b9150612b0a828461280a565b91508190509392505050565b6000602082019050612b2b600083018461277a565b92915050565b6000608082019050612b46600083018761277a565b612b53602083018661277a565b612b606040830185612ad4565b8181036060830152612b728184612798565b905095945050505050565b6000602082019050612b926000830184612789565b92915050565b60006020820190508181036000830152612bb281846127d1565b905092915050565b60006080820190508181036000830152612bd481876127d1565b90508181036020830152612be881866127d1565b9050612bf7604083018561277a565b612c046060830184612ae3565b95945050505050565b60006020820190508181036000830152612c268161283b565b9050919050565b60006020820190508181036000830152612c468161285e565b9050919050565b60006020820190508181036000830152612c6681612881565b9050919050565b60006020820190508181036000830152612c86816128a4565b9050919050565b60006020820190508181036000830152612ca6816128c7565b9050919050565b60006020820190508181036000830152612cc6816128ea565b9050919050565b60006020820190508181036000830152612ce68161290d565b9050919050565b60006020820190508181036000830152612d0681612930565b9050919050565b60006020820190508181036000830152612d2681612953565b9050919050565b60006020820190508181036000830152612d4681612976565b9050919050565b60006020820190508181036000830152612d6681612999565b9050919050565b60006020820190508181036000830152612d86816129bc565b9050919050565b60006020820190508181036000830152612da6816129df565b9050919050565b60006020820190508181036000830152612dc681612a02565b9050919050565b60006020820190508181036000830152612de681612a25565b9050919050565b60006020820190508181036000830152612e0681612a48565b9050919050565b60006020820190508181036000830152612e2681612a6b565b9050919050565b60006020820190508181036000830152612e4681612a8e565b9050919050565b60006020820190508181036000830152612e6681612ab1565b9050919050565b6000602082019050612e826000830184612ad4565b92915050565b6000612e92612ea3565b9050612e9e8282613102565b919050565b6000604051905090565b600067ffffffffffffffff821115612ec857612ec761323a565b5b612ed182613269565b9050602081019050919050565b600067ffffffffffffffff821115612ef957612ef861323a565b5b612f0282613269565b9050602081019050919050565b600081519050919050565b600081519050919050565b600082825260208201905092915050565b600082825260208201905092915050565b600081905092915050565b6000612f5d82613077565b9150612f6883613077565b9250827fffffffffffffffffffffffffffffffffffffffffffffffffffffffffffffffff03821115612f9d57612f9c6131ad565b5b828201905092915050565b6000612fb382613077565b9150612fbe83613077565b925082612fce57612fcd6131dc565b5b828204905092915050565b6000612fe482613077565b9150612fef83613077565b925082821015613002576130016131ad565b5b828203905092915050565b600061301882613057565b9050919050565b60008115159050919050565b60007fffffffff0000000000000000000000000000000000000000000000000000000082169050919050565b600073ffffffffffffffffffffffffffffffffffffffff82169050919050565b6000819050919050565b600060ff82169050919050565b82818337600083830152505050565b60005b838110156130bb5780820151818401526020810190506130a0565b838111156130ca576000848401525b50505050565b600060028204905060018216806130e857607f821691505b602082108114156130fc576130fb61320b565b5b50919050565b61310b82613269565b810181811067ffffffffffffffff8211171561312a5761312961323a565b5b80604052505050565b600061313e82613077565b91507fffffffffffffffffffffffffffffffffffffffffffffffffffffffffffffffff821415613171576131706131ad565b5b600182019050919050565b600061318782613077565b915061319283613077565b9250826131a2576131a16131dc565b5b828206905092915050565b7f4e487b7100000000000000000000000000000000000000000000000000000000600052601160045260246000fd5b7f4e487b7100000000000000000000000000000000000000000000000000000000600052601260045260246000fd5b7f4e487b7100000000000000000000000000000000000000000000000000000000600052602260045260246000fd5b7f4e487b7100000000000000000000000000000000000000000000000000000000600052604160045260246000fd5b6000601f19601f8301169050919050565b7f4552433732313a207472616e7366657220746f206e6f6e20455243373231526560008201527f63656976657220696d706c656d656e7465720000000000000000000000000000602082015250565b7f4f776e61626c653a206e6577206f776e657220697320746865207a65726f206160008201527f6464726573730000000000000000000000000000000000000000000000000000602082015250565b7f4552433732313a207472616e736665722066726f6d20696e636f72726563742060008201527f6f776e6572000000000000000000000000000000000000000000000000000000602082015250565b7f4552433732313a20746f6b656e20616c7265616479206d696e74656400000000600082015250565b7f4552433732313a207472616e7366657220746f20746865207a65726f2061646460008201527f7265737300000000000000000000000000000000000000000000000000000000602082015250565b7f4552433732313a20617070726f766520746f2063616c6c657200000000000000600082015250565b7f556e69766572736964206e6f2072656769737472616461000000000000000000600082015250565b7f4552433732313a206f70657261746f7220717565727920666f72206e6f6e657860008201527f697374656e7420746f6b656e0000000000000000000000000000000000000000602082015250565b7f4552433732313a20617070726f76652063616c6c6572206973206e6f74206f7760008201527f6e6572206e6f7220617070726f76656420666f7220616c6c0000000000000000602082015250565b7f4552433732313a2062616c616e636520717565727920666f7220746865207a6560008201527f726f206164647265737300000000000000000000000000000000000000000000602082015250565b7f4552433732313a206f776e657220717565727920666f72206e6f6e657869737460008201527f656e7420746f6b656e0000000000000000000000000000000000000000000000602082015250565b7f45524337323155524953746f726167653a2055524920736574206f66206e6f6e60008201527f6578697374656e7420746f6b656e000000000000000000000000000000000000602082015250565b7f4552433732313a206d696e7420746f20746865207a65726f2061646472657373600082015250565b7f45524337323155524953746f726167653a2055524920717565727920666f722060008201527f6e6f6e6578697374656e7420746f6b656e000000000000000000000000000000602082015250565b7f4552433732313a20617070726f76656420717565727920666f72206e6f6e657860008201527f697374656e7420746f6b656e0000000000000000000000000000000000000000602082015250565b7f4f776e61626c653a2063616c6c6572206973206e6f7420746865206f776e6572600082015250565b7f4552433732314d657461646174613a2055524920717565727920666f72206e6f60008201527f6e6578697374656e7420746f6b656e0000000000000000000000000000000000602082015250565b7f4552433732313a20617070726f76616c20746f2063757272656e74206f776e6560008201527f7200000000000000000000000000000000000000000000000000000000000000602082015250565b7f4552433732313a207472616e736665722063616c6c6572206973206e6f74206f60008201527f776e6572206e6f7220617070726f766564000000000000000000000000000000602082015250565b6137a28161300d565b81146137ad57600080fd5b50565b6137b98161301f565b81146137c457600080fd5b50565b6137d08161302b565b81146137db57600080fd5b50565b6137e781613077565b81146137f257600080fd5b50565b6137fe81613081565b811461380957600080fd5b5056fea26469706673582212205a0c60ad166201ff02c5d6d6d17421ce37c29076f0c4d6ae4fe9ed98705bc7a364736f6c63430008040033",
  "immutableReferences": {},
  "source": "// SPDX-License-Identifier: MIT\npragma solidity ^0.8.4;\n\nimport \"@openzeppelin/contracts/token/ERC721/extensions/ERC721URIStorage.sol\";\nimport \"@openzeppelin/contracts/access/Ownable.sol\";\n\ncontract certs is ERC721URIStorage, Ownable {\n    \n    //Direccion del contrato NFT del proyecto\n    address public cert;\n    //contador certs\n    uint256 public contador;\n    //estructura \n    struct Certificado {\n        string universidad;\n        string alumno;\n        address dirAlumno;\n        uint8 notaMedia;\n    }\n\n    Certificado [] public certificados;\n    //constructor\n    constructor() ERC721(\"Certificado\",\"crt\") {\n        cert = msg.sender;\n    }\n\n    mapping(address => string) public universidades; \n\n    function registrarUniversidad(string memory _nombre,address _addrUni) public onlyOwner {\n        universidades[_addrUni] = _nombre ;\n    }\n\n    modifier isUniversidad () {\n        string memory nombre = universidades[msg.sender];\n        require(bytes(nombre).length> 0,\"Universid no registrada\");\n        _;\n    }\n    //create NFT Token\n    function _createCertNFT(string memory _alumno,address _dirAlumno,uint8 _nota,string memory _tokenUri) public isUniversidad {\n        string memory nombreUni = universidades[msg.sender];\n        Certificado memory newCert = Certificado(nombreUni,_alumno,_dirAlumno,_nota);\n        certificados.push(newCert);\n        _safeMint(_dirAlumno,contador);\n        _setTokenURI(contador,_tokenUri);\n        contador++;\n    }\n}",
  "sourcePath": "/Users/alvaro/Desktop/programacion/Web3/Github/Certificados/Certificados/src/contracts/Certs.sol",
  "compiler": {
    "name": "solc",
    "version": "0.8.4+commit.c7e474f2.Emscripten.clang"
  },
  "schemaVersion": "3.4.6",
  "updatedAt": "2023-01-16T10:16:43.431Z",
  "networkType": "ethereum",
  "devdoc": {
    "kind": "dev",
    "methods": {
      "approve(address,uint256)": {
        "details": "See {IERC721-approve}."
      },
      "balanceOf(address)": {
        "details": "See {IERC721-balanceOf}."
      },
      "getApproved(uint256)": {
        "details": "See {IERC721-getApproved}."
      },
      "isApprovedForAll(address,address)": {
        "details": "See {IERC721-isApprovedForAll}."
      },
      "name()": {
        "details": "See {IERC721Metadata-name}."
      },
      "owner()": {
        "details": "Returns the address of the current owner."
      },
      "ownerOf(uint256)": {
        "details": "See {IERC721-ownerOf}."
      },
      "renounceOwnership()": {
        "details": "Leaves the contract without owner. It will not be possible to call `onlyOwner` functions anymore. Can only be called by the current owner. NOTE: Renouncing ownership will leave the contract without an owner, thereby removing any functionality that is only available to the owner."
      },
      "safeTransferFrom(address,address,uint256)": {
        "details": "See {IERC721-safeTransferFrom}."
      },
      "safeTransferFrom(address,address,uint256,bytes)": {
        "details": "See {IERC721-safeTransferFrom}."
      },
      "setApprovalForAll(address,bool)": {
        "details": "See {IERC721-setApprovalForAll}."
      },
      "supportsInterface(bytes4)": {
        "details": "See {IERC165-supportsInterface}."
      },
      "symbol()": {
        "details": "See {IERC721Metadata-symbol}."
      },
      "tokenURI(uint256)": {
        "details": "See {IERC721Metadata-tokenURI}."
      },
      "transferFrom(address,address,uint256)": {
        "details": "See {IERC721-transferFrom}."
      },
      "transferOwnership(address)": {
        "details": "Transfers ownership of the contract to a new account (`newOwner`). Can only be called by the current owner."
      }
    },
    "version": 1
  },
  "userdoc": {
    "kind": "user",
    "methods": {},
    "version": 1
  }
}